S01B0000415050535F454E444445564943455F44454D4F2E737265636B
S2140000006840002009380000053800000538000068
S21400001000000000000000000000000000000000DB
S214000020000000000000000000000000053800008E
S2140000300000000000000000053800000538000041
S2140000400538000005380000D51100006D090000D5
S21400005005380000053800000538000005380000A7
S2140000600520000015200000252000003520000097
S2140000704520000055200000053800000538000027
S21400008005380000C1330000D1330000E133000022
S214000090F133000001340000B90600000538000006
S2140000A00538000005380000053800000538000057
S2140000B00000000010B5064C2378002B07D1054B36
S2140000C0002B02D0044800E000BF0123237010BDBF
S2140000D0180A002000000000CC100200084B10B5E3
S2140000E0002B03D00749084800E000BF0748036814
S2140000F0002B00D110BD064B002BFBD09847F9E72C
S214000100000000001C0A0020CC100200CC100200E8
S2140001100000000070B50020084B98470500084C0A
S214000120FA218900A047074B186007492800A04716
S214000130064B18600522064B1A6070BDC1300000E1
S214000140415301000000002040420F000400002040
S21400015010E000E030B5084B1C68084A00258021F6
S2140001604902013807D3002CFBD054609560136811
S2140001700B42FCD0F5E730BD0400002010E000E0A4
S21400018030B5084B1C68084A002580214902013812
S21400019007D3002CFBD05460956013680B42FCD04C
S2140001A0F5E730BD0000002010E000E00C4B1B68B7
S2140001B0002B06D1EFF31083002B07D00022094B4B
S2140001C01A70074A136801331360704772B6BFF39C
S2140001D05F8F0022044B1A700132024B1A70F0E750
S2140001E0340A0020380A002008000020084B1A684D
S2140001F0013A1A601B68002B09D1064B1B78002BAE
S21400020005D00122044B1A70BFF35F8F62B67047A9
S214000210340A0020380A002008000020F0B5C64640
S21400022000B582B001AC0125657000239846A37026
S214000230257021001320124EB047124F80231B0357
S214000240BB61257021001220B0478023DB02BB6112
S214000250257021000D20B04780239B017B6125700F
S21400026021000920B04780239B007B614346237012
S214000270657021001C20B04702B004BC9046F0BD5B
S214000280C90E0000002800400020704710B500236B
S2140002900022037043708370C370002103830362DF
S2140002A0C36106240471C0246401C48001724272D2
S2140002B08272C27202732A24025542738273C27318
S2140002C003610275063C0255C3840385417510BD63
S2140002D0F0B5CE4600B598B005000C001600080034
S2140002E0B24B98472C60B24A136A08210B4313623C
S2140002F022780523D20704D5180018B004BC91460E
S214000300F0BD2A68138C9BB2002BFBD122781C33DD
S2140003109207F1D473782B71002B04D1A54AD369C8
S21400032004210B43D3610023AB60EB602B61AB76FB
S214000330EB762B832B7780009F4BC5502A23F35CEC
S214000340002B05D1337B002B02D101336B7701E004
S21400035000236B772F6833786A46137069461E2031
S214000360964B98471E20964B9847347958229549C5
S21400037002A8954B9847132C0BD9F488582291491C
S21400038002A8914B9847132C11D900248E4B9946FE
S2140003901EE0A40002ABE05801A900234B70CB700E
S2140003A08B7001330B70C0B2884B9847E5E7A4000A
S2140003B002ABE05801A900234B70CB708B70013361
S2140003C00B70C0B2814B9847DFE70134142C18D06D
S2140003D00123A34032691A42F7D05822794902A86D
S2140003E0C847132CF1D8A30002AA985801A90023E5
S2140003F04B70CB708B7001330B70C0B2734B984749
S214000400E3E7737B9B01B27BD2011343DBB23B7005
S214000410337DDB0172781343DBB2BB70F378342B89
S21400042000D940E19B006A4AD3589F460422102018
S21400043002211AE0717A327A102016E00622102085
S214000440012112E00822102000210EE000223020B8
S21400045000210AE000222020002106E000220020E1
S214000460002102E0022210200121090170230B4026
S21400047013433B732A68138C9BB2002BFBD1727D0F
S21400048017333F2A00D937E7F37BDB011A43D2B292
S2140004907A732A68138C9BB2002BFBD1B3787B70DF
S2140004A02423F35CDB00327B92001A43F37A134377
S2140004B0B27A5200134303437B812A68138C9BB2A3
S2140004C0002BFBD1328B002A20D0102800D1C9E0A7
S2140004D000D883E0202800D1A3E0302816D1F37A94
S2140004E0002B0AD0F16980311723FF2900D903E7D2
S2140004F0316A8031FF2900D9FEE61723F169FF290A
S21400050000DDF9E6316AFF2900DDF5E67B891A434E
S2140005107A812A68138C9BB2002BFBD1B38BFB81AC
S2140005202A68138C9BB2002BFBD1338C3B822A6843
S214000530138C9BB2002BFBD13379F28813433B819B
S2140005402A68138C9BB2002BFBD12A33F35CFB701A
S21400055007233B711D33F35C002B1BD0F28C1D4927
S21400056017238A4200D9C7E67A822A68138C9BB280
S214000570002BFBD1318D80231B01CA18154892B27F
S2140005801723824200D9B7E6B9822A68138C9BB239
S214000590002BFBD1104B1B681A02E021C9000A4051
S2140005A09B065B0F1343BB850023A5E6890200006C
S2140005B00004004000140040AC1200209D310000F2
S2140005C02D3100004CEE01008D8A0100C93200007A
S2140005D078ED0100FF0F000020608000002895D114
S2140005E0F37A002B12D0F36980200001844663441E
S2140005F019002E481723814200D97DE6336A6344EA
S21400060019002A481723814200D975E6274917237F
S214000610F069884200DD6FE6306A884200DD6BE6EE
S21400062074E7F37A002B12D0F369802080008446AA
S214000630634419001E481723814200D95CE6336ADA
S214000640634419001A481723814200D954E6184912
S2140006501723F069884200DD4EE6306A884200DDE6
S2140006604AE653E7F37A002B12D0F36980200002A3
S2140006708446634419000F481723814200D93BE69D
S214000680336A634419000B481723814200D933E6C6
S21400069008491723F069884200DD2DE6306A884253
S2140006A000DD29E632E7172326E6C046FF0F0000E6
S2140006B0FF030000FFFF000070B52F4B1C68236887
S2140006C09A795D791540EA072AD501229A716269FE
S2140006D0931C636123689B8C9BB21380238B013B26
S2140006E09BB22383002B15D0637F002B18D0226883
S2140006F0D3795BB2002B13DB138C9BB2002BFBD1A0
S214000700137E02210B4313762268138C9BB2002BB8
S214000710FBD105E0012322681371237F052B16D039
S2140007206B0708D5042322689371E37E9B0702D5E6
S214000730A37E9B0717D4AB0708D5022322689371C4
S214000740E37E5B0702D5A37E5B0710D470BD002353
S2140007502377E37EDB07E3D5A37EDB07E0D5200027
S214000760A3689847DCE72000E3689847E3E7236937
S21400077020009847EAE7C046AC1200200123037029
S214000780002343708370C37003710F22427183711C
S214000790C371037270470268136802210B4313602B
S2140007A070470323026853710268D37102681368A6
S2140007B002218B431360704770B504000D00D37898
S2140007C003712160537843711379837113789B0208
S2140007D09178C9020B43517809020B43D1788900FE
S2140007E00B43117949010B4391798903D079400372
S2140007F00143107A0003014352791204F0200003EB
S21400080002400A4313431E002B689B0701D42E6048
S21400081070BD2000034B98472E602000024B98477F
S214000820F6E7C046A30700009707000070B5054C22
S214000830E56980239B012B43E36101230B60024B98
S214000840984770BD00040040B907000070B54379B2
S214000850012B05D0002B10D0022B0DD1082500E06F
S2140008600625002310C99A1C92000668B446624406
S21400087054600133AB42F5D370BD0425F1E70000A8
S21400088010B50023026813720F4B426813400F4ADC
S21400089093420AD00379032B0ED00C001034036861
S2140008A004C99A638C42FAD110BD03680A689A6339
S2140008B003684A689A63F7E78379023B012BECD812
S2140008C003680A689A63EFE7FF00FF000300010071
S2140008D0002302681372104B426813400F4A93427B
S2140008E00AD00379032B0ED00A00103203689B6BE4
S2140008F008C18A42FAD1704703689B6B0B60036895
S2140009009B6B4B60F7E78379023B012BECD80368BF
S2140009109B6B0B60EFE7C046FF00FF000300010083
S2140009201723002A01D0180070478B00064A9B58F0
S214000930002B03D0834205D01D23F4E7890088509E
S2140009400023F0E70023EEE7B41200201723002967
S21400095001D01800704700221F2800D8024A012341
S214000960834013610023F4E70024004070B50022A2
S214000970104B1A70002310491F25104E0D4C0AE02C
S2140009800D4908E023780133DBB223700F2B10D813
S21400099000211F2BF4D92800184001228240486904
S2140009A01042EFD04A619B009B59002BEAD0984733
S2140009B0E8E770BDB012002000240040B41200200A
S2140009C0064A137802210B4313700120536819421C
S2140009D0FCD153681842F9D17047C0460024004045
S2140009E0064A137802218B4313700120536819427C
S2140009F0FCD153681842F9D17047C0460024004025
S214000A0010B5124A516980239B000B435361104A6C
S214000A10137801210B4313700131012053681942EA
S214000A20FCD153681842F9D1094A137810210B43B8
S214000A301370084B19004031002204C38B42FCD1CE
S214000A400822054B1A60054B984710BD000400406D
S214000A5000240040B412002000E100E0C1090000BC
S214000A600023036043600122027283720132C27265
S214000A7043727047F0B583B005000C001C4B9847D6
S214000A8001A900234B70CB7023790B70237A8B70EF
S214000A902078184B984700211F2D00D816490722AA
S214000AA02A409200E77AA37A002B01D008231F433E
S214000AB0EB089B00CB18D8690F269640B0439740AA
S214000AC03A000243DA61637A002B0BD18A6901236C
S214000AD0AB40DB431B041B0C13408B61074B984752
S214000AE003B0F0BD8A690123AB4013438B61F5E781
S214000AF0E1090000C932000000240040C1090000DE
S214000B0010B51E4A936904210B4393611C4B2022A7
S214000B10FF321A831A7D0523D20701D4180010BDB0
S214000B2003781B02C022920013404178C901FF22BD
S214000B300A401343817849001E220A401343C278B4
S214000B4092048021C9020A40134302791204C0218C
S214000B5089020A4013430A4A536093685B035B0F9B
S214000B60084908249C400C8093684B8043780B719E
S214000B70138BDB05DB0F1B01D0E7C04600040040EB
S214000B80004000413C0A002030B5304A14885388A3
S214000B9063438B420BD2802292012D4BCB1893429B
S214000BA005D92C4C18232C4A8A18A2420ED82B4B57
S214000BB05C688022D20222435A602022FF321A83C7
S214000BC01B7DDB0704D4254B5C600523180030BD75
S214000BD0452829D88300224AD3589F461F4B1B8B93
S214000BE0DB0503D51D4B5C601023EFE78908490041
S214000BF01A4BD96103E089084900184BD961FD23D7
S214000C0005001A3D1D4013D0A5231B021843134BA5
S214000C101880190001220B7D1342FCD0002D0FD046
S214000C200E4B5C600023D1E70C4B5C601723CDE7CE
S214000C300A4B59688022D2020A435A605B68E3E78F
S214000C40064A536807490B405360E9E73C0A002010
S214000C5000C07FFFFF1F00000000C0FF00400041F3
S214000C60A4EE0100FFFFFBFFF8B52F4B1C885B8846
S214000C706343834207D22D4E18252D4BC318B3422B
S214000C8006D8012600E00026631E1825184201D06B
S214000C902800F8BD013D9442FAD3264B1B7D123D39
S214000CA0DB07F5D5244C234B1C801D0001242B7D2F
S214000CB02342FCD02024FF341E4B1C83002A2CD059
S214000CC0012305009D430023541EA44609E0CF18C7
S214000CD07F783F023C432C8002339BB202359A4217
S214000CE004D9CC5C6345F2DBA4B2F4E70E4B1B7967
S214000CF00025002BCCD13F2ACAD8002E06D10022D0
S214000D00010004200D4B98470500C1E700220100B2
S214000D101C200A4B98470500BAE7034B1B790025B1
S214000D20002BEAD0B4E7C0463C0A0020FF1F0000B4
S214000D300000C0FF0040004144A5FFFF890B0000F3
S214000D4070B51B4B1C885B886343834205D2194EE3
S214000D501825194BC318B34203D8631E182518422A
S214000D6001D0280070BD013D9442FAD3134B1B7D81
S214000D70123DDB07F5D52024FF34104B1C83002AD8
S214000D8014D0012398430023561E04E002339BB27E
S214000D9002309A4208D90488A4B2CC54B342F5DA99
S214000DA0CD18240A6C70F1E70025DAE70025D8E7AD
S214000DB03C0A0020FF1F00000000C0FF004000416A
S214000DC010B5224A138852885A43824207D2204CD2
S214000DD0182220494118A14207D8012400E0002427
S214000DE09B00013B1822184201D0100010BD1A4B80
S214000DF01B7D133ADB07F8D5174B2022FF321A83E8
S214000E0080084000D861002C1BD059688022D2028E
S214000E100A435A605A68114A1A800F4901220B7D0C
S214000E201342FCD0002C04D00B4A53680C490B40EC
S214000E305360094B1A8B1C200240501E82419200C0
S214000E40D3E7084A044B1A80E7E7C0463C0A00206E
S214000E50FF1F00000000C0FF004000411AA5FFFF72
S214000E60FFFFFBFF02A5FFFF154B2022FF321A8370
S214000E709B685903490F183AFF3A8A40027043802C
S214000E801B0D83810F4B1B885B065B0F072B10D057
S214000E900622D21A0423934043600A4B1B8807227B
S214000EA01340072B08D00722D21A042393408360EE
S214000EB0704700234360F0E700238360F8E7C046EE
S214000EC0004000410040800000B583B001AB8022A6
S214000ED01A700A785A704A789A708A78DA70190006
S214000EE0014B984703B000BDC9320000036818697B
S214000EF0431E9841C0B2704770B5040006680422CD
S214000F00084B1A60084D2000A8470028FBD13388FC
S214000F10022213433380044D2000A8470028FBD14B
S214000F2070BDC04600E100E0ED0E000070B50400A4
S214000F300668042180230A4AD1500A4D2000A8479B
S214000F400028FBD1084B3381B381338802229343B8
S214000F503380044D2000A8470028FBD170BDC04652
S214000F6000E100E0ED0E0000FF81FFFF70B5040019
S214000F7006680A4B98470023A386E386084D2000A0
S214000F80A8470028FBD13388012213433380044D41
S214000F902000A8470028FBD170BDC0462D0F0000DA
S214000FA0ED0E0000F8B504000E0007680C4D20009A
S214000FB0A8470028FBD12379002B09D01720012B46
S214000FC005D1BE61064D2000A8470028FBD1F8BD1C
S214000FD0044B17209E42FAD8B6B23E83F2E7C046CC
S214000FE0ED0E0000FFFF000070B504000668084D17
S214000FF02000A8470028FBD12379002B04D000202E
S214001000012B00D1B06970BD308B80B2FBE7C046C3
S214001010ED0E0000F0B583B00400019115000668DF
S214001020134F2000B8470028FBD12379002B0ED0A1
S214001030012B19D11730012D17D80835AD00019BAB
S214001040AB510B4D2000A8470028FBD10DE0172020
S214001050022D0AD8074B019A9A4206D86B469B88FF
S21400106010356D00AB53ECE71A2003B0F0BDC04658
S214001070ED0E0000FFFF000070B5040015000160D3
S2140010801F4A516980235B000B43536105221D4BA9
S2140010901A611D4B9847AB7823711C4B1C60226865
S2140010A02B79DB0329880B439BB21380AB78002B8C
S2140010B013D01720012B0FD113889BB21380EB7827
S2140010C0002B03D0138880210B431380A9680022CD
S2140010D020000F4B9847002070BD138804210B4357
S2140010E01380EB781720002BF6D10022A968200089
S2140010F0074EB047E96801222000B0470020EBE722
S21400110000040040001000406D0F0000F4120020A4
S214001110151000000A2A09D0072A07D90379002BE0
S21400112010D0012B12D11633092A09D8931C9B0024
S2140011301950838E012191400B439BB28386002376
S2140011401800704717230A2AFAD8EFE71723F7E79D
S21400115010B502680A2911D0072912D980235B002E
S2140011600C00083CA340C024A40023405381C38E37
S21400117001228A4013439BB2C38610BD044B5381A1
S214001180F5E701248C40FF2323405381EFE7C04658
S2140011900080FFFF10B502680A2910D0072911D970
S2140011A080235B000C00083CA340C024A40023401E
S2140011B01381C38E01228A409343C38610BD044B1D
S2140011C01381F6E701248C40FF2323401381F0E7C8
S2140011D00080FFFFF8B5DE4657464E464546E0B56A
S2140011E02B4B1B689A461E68DB8E5246928E1A4020
S2140011F09046B289738913401AB2002A08DBFF278B
S2140012001F402AD0002401239946FE339B4614E053
S21400121043465B0507D41F4BB3813CBC90469946BA
S214001220A246AB46F8BD53461B6B9847F3E75B46B2
S2140012301D40B5810134082CEFD023004D46A54053
S2140012402F42F4D04246224149461142EFD00233A3
S2140012509B0052469B589847E9E7DA050AD543466D
S214001260DB0503D480235B00B381D6E753469B6A35
S2140012709847F7E79B05D0D543469B0503D48023C4
S2140012809B00B381C9E75346DB6A9847F7E7C04639
S214001290F41200200080FFFF01680722CB691A4283
S2140012A0FCD17047F0B5D6464F464646C0B58AB024
S2140012B007000E00140039600800A54B9847052863
S2140012C000D13DE105001235A24AD16901238340D1
S2140012D00B43D36109A9237B0B70EDB228009E4B0C
S2140012E0984728009D4B9847207B00219C4B9847A9
S2140012F033681C209B0705D50AB01CBC904699464F
S214001300A246F0BD33681738DB07F5D43868904B33
S2140013109946984705009349934B9847AD00934BE1
S214001320EF5000233B767B7600257B83BB8325220C
S214001330BD543B62143333603B6898461800C84778
S2140013408146802308AA1370557001239370D570C8
S214001350E069266A002800D1AFE008AB18700223C7
S21400136008AA5370000CC0B21100814B9847002E9B
S21400137000D1A7E008AB1E70022308AA5370360CF3
S214001380F0B211007A4B9847A38AFB80E38A3B8130
S214001390237E8022002B04D1764B9B789B07DB0FA5
S2140013A0DA01A16823690B4313432422A25C002AB6
S2140013B002D08022D2051343A26A13432C22A25CD9
S2140013C0002A03D180229204914202D18022120583
S2140013D013432D22A25C002A02D08022120413435B
S2140013E02E22A25C002A02D08022D2031343424659
S2140013F0126813434246136080235B0053604D46D9
S2140014001235E8B25C4B98470790FA239B00226897
S2140014105A43914663689A46584DA84700900191F2
S2140014204B465800A84702900391208EA847049088
S2140014300591534F534A544B00980199B847020000
S2140014400B0004980599B847504E0022504BB04701
S214001450049005914846A84702000B000498059999
S214001460B84702000B004B4D00980199A847029A16
S214001470039BB0470022484BA847029A039B474D60
S214001480A847474B9847050080239B04A2689A42CA
S2140014901ED003004020FF2D00D92DE70024002099
S2140014A0FF251D40240625430004FF231B04184087
S2140014B005434346DD6000201EE700214046394BC9
S2140014C098474AE701214046364B9847060051E7C1
S2140014D0FA26B60053465E430098019902000B00B8
S2140014E02A4CA047009001913000244B98470022D8
S2140014F02D4BB84702000B0000980199274CA047D7
S2140015000022254B234CA047254B9847041E0CD0A1
S21400151031000798254B98470238001B2B00FF2DFB
S2140015200CD8FF28BCD94020E6E67100481E079B71
S2140015309C4660441D4B98470138EFE74020DBE6A9
S214001540044A136A02210B4313621825C2E6C046FA
S2140015505D1F0000000400409D3100002D3100009A
S214001560B51D0000511A0000991F0000F812002057
S214001570C932000000200041C1310000297F01006F
S2140015809573010095D626E80B2E113E0D670100D7
S21400159000002440957801000000F03F2D6D01000A
S2140015A0C17E0100011E00000000084041530100FA
S2140015B0F8B5CE46474680B5040003689946144EF3
S2140015C0B04725682800134B984698471F231840B5
S2140015D001273900814061330F4AD1502000B047BF
S2140015E083232B752B762B68022293432B600B4BA1
S2140015F098472068C0470A4B98470A4B98472000F0
S214001600B0474B461F600CBC90469946F8BDC04696
S21400161099120000D51F000000E100E0AD010000B7
S214001620F1310000ED01000003681A7E920707D52D
S21400163002221A765B8B9B074120DB171840704707
S2140016405A8B520706D55968C02292020A435A603E
S2140016501820F4E70020F2E730B5026800230124E2
S2140016600225117E21420BD1117E294206D101337B
S2140016709BB201899942F4D8122002E0002000E0D3
S214001680002030BD10B5046862688023DB02134377
S21400169063606162024B98470123237610BDC04603
S2140016A059160000F0B5DE4657464E464546E0B5AC
S2140016B083B00600894605684C882B681B01DB0F43
S2140016C09A464B7A002B2BD16B68584A13406B60B6
S2140016D04B461B7A002B27D14B461B885B004A469D
S2140016E0527A92031343012213436B623000504B2D
S2140016F0984701905346002B03D04B465B88012B3E
S2140017003BD06B68494A13406B60019B002B3AD074
S214001710019803B03CBC90469946A246AB46F0BD45
S214001720897A444B9847CFE74B461B885B004A466E
S214001730527A920313438022120213436B623000E4
S2140017403B4B984701906B68384A13406B60002803
S214001750DED13000384B984701900028D8D14B4650
S2140017601B881B0A782213435B004A46527A920370
S21400177001210A4313436B62B8E76A688023DB02E1
S21400178013436B60C1E730002B4B9847019000284D
S214001790BED1013CA4B28046284B9B4615E0012CE6
S2140017A020D03000264B984743465F1CBFB2282304
S2140017B0EB5C4A4652684146535430001C4B9847EF
S2140017C0013CA4B2002815D1B8465C4514D06B8BFA
S2140017D09B0627D5F37A002BE3D05346002BDED1A9
S2140017E0002CDED16A688023DB0213436B60013C69
S2140017F0A4B2EAE7B8460190B37A002B09D13000CC
S2140018000F4B98472823EA5C4B465B6841465A5480
S2140018107EE730000A4B98476A68C0239B02134352
S2140018206B60ECE74123019372E7C046FFFFFBFFC6
S214001830591600008516000029160000FFFF00005C
S21400184099120000F0B5DE4657464E464546E0B5CE
S21400185083B006000F0005684C88324B98477B7AA9
S214001860002B1DD16B68304A13406B603B7A002B0F
S2140018701BD03B885B007A7A9203134380221202C5
S21400188013436B623000294B98470190002813D011
S214001890019803B03CBC90469946A246AB46F0BDC4
S2140018A0B97A3000224B9847DCE73B885B007A7AAF
S2140018B0920313436B62E5E730001E4B9847031E06
S2140018C00190E5D1A046002420339946154B9B464F
S2140018D0164B9A46444515D06B8B4A4613421DD08C
S2140018E03000D8477B681A5D2823EA543000D0477A
S2140018F0002806D16B8B01345B07EBD51E230193C2
S21400190000E00190B37A002BC2D03000054B984718
S2140019106A68C0239B0213436B60B9E741230193B7
S214001920B6E7C04699120000FFFFFBFF59160000FD
S214001930851600002916000010B5838B9BB2052281
S214001940002B01D0100010BD01338372C372024B0E
S21400195098470200F6E7C046A516000010B5838B30
S2140019609BB20522002B01D0100010BD01338372FC
S214001970C372024B98470200F6E7C04645180000BF
S21400198001680722CB691A42FCD1704770B5040083
S21400199006683268458B838BED1AADB2838B013BAC
S2140019A09BB2838313011DD5C37A002B03D0838B90
S2140019B09BB2012B10D0A38B9BB2002B02D1A37A33
S2140019C0002B1CD12000124B9847236A5D19282350
S2140019D0F35CDBB22B7070BD72688023DB021343AE
S2140019E07360E8E7C37A002BE5D0838B9BB2002BAD
S2140019F0E1D172688023DB0213437360DBE72000CB
S214001A00034B98477268C0239B0213437360D9E761
S214001A108119000070B5040005686B8B5B0703D561
S214001A201E222523C25470BD468B838BF61AB6B28F
S214001A30838B013B9BB28383044B9847236A9E1992
S214001A403378DBB22822AB54EDE7C046811900009C
S214001A5070B58000754BC45825682B681B01DA0FDB
S214001A60637E267E1E40638B9BB2002B03D1A38B26
S214001A709BB2002B23D1638B9BB2002B08D0A38B89
S214001A809BB2002B04D12533E35C052B00D16DE01F
S214001A90638B9BB2002B24D0A38B9BB2002B20D051
S214001AA06B8B9B0600D581E0002A04D0A38B9BB2EB
S214001AB0012B00D17AE041222523E25411E02B7E4F
S214001AC0DB0707D501232B766B8B9B072ED5412290
S214001AD02523E254A38B9BB263832523E35C052B6B
S214001AE038D0638B9BB2002B07D0A38B9BB2002B06
S214001AF003D12533E35C052B64D02523E35C052B5B
S214001B0013D02523E35C002B0FD003232B75002373
S214001B106383A3832533E35C412B03D0A37A002B96
S214001B2000D075E0730700D57BE070BD6B8B5B075C
S214001B30D0D518222523E2540023A383A37A002BB2
S214001B40C8D020003A4B98476A68C0239B021343CC
S214001B506B60BFE71F33E35C002B03D02000354BE0
S214001B609847BEE72000344B9847BAE71F33E35C3C
S214001B70002B00D08CE703332B75002363832533BB
S214001B800022E254A37A002B07D101232B76F30719
S214001B90A7D5E36820009847A3E72000244B984782
S214001BA06A68C0239B0213436B60F0E72423E35C60
S214001BB0002B03D12000204B984792E720001D4BB6
S214001BC098478EE71F33E35C012B96D12B7E9B074D
S214001BD001D502232B7603232B750023638325333D
S214001BE00022E254B30703D52423E35C012B0BD079
S214001BF0F30700D481E72423E35C002B00D07CE7C6
S214001C00E3682000984778E723692000984774E740
S214001C102000074B98476A68E023DB0213436B609B
S214001C2080E76369200098477FE7C046F8120020E7
S214001C30811900008D190000151A0000F0B5DE4667
S214001C4057464E464546E0B587B080460491160096
S214001C501F000022002300218B463F240120210084
S214001C60009601975C4603944446059413E02024AE
S214001C70641A0500E540A84614E0009C019D121B6E
S214001C80AB415C464D462C43A346039C45462C433D
S214001C900394013925D3202464420C19E7D40500A7
S214001CA0A540A84604008C40A14692185B4114004B
S214001CB01D00059E4F463E40B446049E47463E40A5
S214001CC0B246664657463E4303D0060026433200D9
S214001CD02B00009C019D9D42DBD8CED19442D8D8E3
S214001CE0CBE7039B5846190007B03CBC9046994684
S214001CF0A246AB46F0BD10B54908402300248142F9
S214001D0002D2180010BD1C00091A631C9BB2884240
S214001D10F9D94023FF2CF4D814800023F1E7000003
S214001D20F0B583B00F00160008AA117804004C43E3
S214001D304022BC4202D9100003B0F0BD002B14D1E3
S214001D40020008000021194CA04701003A000023B9
S214001D500020174CA04700220123121A8B41120CB8
S214001D601B041A4332800022E5E70022012BF9D13A
S214001D700A00002300210D4CA04702000B00009231
S214001D800193380000210A4CA047050080239B01E0
S214001D9040229842CFD8790FF800009A019BA047BE
S214001DA0EA00821AD2B252032A43DBE7E156010068
S214001DB03D1C000010B582B004000E4B1B78002BB3
S214001DC007D0002905D10B4B5B78834210D01D202D
S214001DD00CE001A90C701120074B98471120074B07
S214001DE09847044B5C7001221A70002002B010BDA8
S214001DF00020FBE7440A00209D3100002D31000042
S214001E003C4B984232D00AD93B4B98424ED03B4B83
S214001E10984255D03A4B984238D0002070478423D9
S214001E20DB0598420CD0374B9842F6D1012917D0E3
S214001E30002957D0022915D0032915D00020EDE738
S214001E40012907D000294BD0022905D0032905D047
S214001E500020E3E72C48E1E72C48DFE72C48DDE7E5
S214001E602C48DBE72C48D9E72C48D7E7012907D0D0
S214001E70002939D0022905D0032905D00020CDE756
S214001E802748CBE72748C9E72748C7E7012907D0EF
S214001E9000292BD0022905D0032905D00020BDE754
S214001EA02248BBE72248B9E72248B7E7022903D011
S214001EB0032903D00020B1E71F48AFE71F48ADE76E
S214001EC0012907D0002913D0022905D0032905D0FF
S214001ED00020A3E71A48A1E71A489FE71A489DE79B
S214001EE01A489BE7032099E7194897E7194895E7AA
S214001EF0194893E70008004200100042000400431F
S214001F00000C004200040042030005000300060027
S214001F10030007000300010003001E0003001F006B
S214001F200300090003000A0003000B000300110071
S214001F30030012000300130003000E0003000F004E
S214001F400300170003001800030019000300040034
S214001F5003000800030010000300160030B587B029
S214001F600B4B6A4632CB32C232CB32C2009B834224
S214001F700BD001239A0069465258824206D001339C
S214001F80062BF7D1002007B030BD0023D8B2FAE701
S214001F90BCEF010070470000F0B50A4B1B78002B21
S214001FA00CD1094F094E0A4D0024DE515A1914600F
S214001FB00433182BF9D10122024B1A708000024B11
S214001FC0C150F0BD460A0020480A0020951F0000B8
S214001FD0F812002000B583B008236A461370013358
S214001FE05370013393700133D3700133137101338F
S214001FF05371034B98476B46185603B000BDC04656
S2140020005D1F000010B5024B1B680020984710BDEE
S214002010480A002010B5024B5B680120984710BDA7
S214002020480A002010B5024B9B680220984710BD56
S214002030480A002010B5024BDB680320984710BD05
S214002040480A002010B5024B1B690420984710BDB3
S214002050480A002010B5024B5B690520984710BD62
S214002060480A0020F0B5D6464F464646C0B58AB068
S21400207006000F00140031600B689B070AD40B683B
S2140020800520DB0700D497E00AB01CBC90469946B2
S214002090A246F0BD936A0593D36A0693136B079323
S2140020A0536B089300250AE038009A4B98470EE0D9
S2140020B00F231840814530D10135042D31D0E9B2C7
S2140020C0AB0002AA0C201218D0580028ECD0431CF3
S2140020D0F2D001040B0C9946000CC3B29C460023B8
S2140020E0020605D463465B09DB018B4A90464344EF
S2140020F01F226046024098184030007882468020B2
S2140021005146C907D6D552089B1830331878C0B246
S2140021106346DB07CCD50009CCE7002333601C20E0
S214002120B2E711207D4B984722780025012A26D059
S2140021306368A2681343E26813432B43227C617CE6
S214002140002901D080210B43A17C002902D08021E8
S21400215089020A43E17C002902D0802189000A43D3
S214002160217D002902D0802189010A433968022096
S21400217003438B4217D0002333601C2084E704AA55
S2140021800100A069664B984703001720002B00D07B
S2140021907AE73B7BDBB204AA127805309A4200D07D
S2140021A072E70C35C4E77B689342E4D123787371F9
S2140021B0237CB371002067E708005A4B9847052830
S2140021C000D19FE0030012335749CD6901228240B7
S2140021D02A43CA6109A92425625D0A70DBB201930D
S2140021E01800524B98470198514B9847605D002164
S2140021F0504B98472378012B19D03368984604AB88
S21400220080221A7000225A7001219970DA702378A1
S214002210002B01D104AB9A70A36A0593E36A069378
S214002220236B0793636B0893002705AD11E03B68AB
S2140022300C2213433B60E0E74046364B98470DE0E0
S21400224004A90870000CC0B23B4B98470137042F16
S21400225007D0F9B2BB0058590028EDD0431CEFD187
S214002260F4E723787371237CB371A37CF371237D29
S2140022703372002202ABDA802378012B2AD06368FF
S214002280A2681343E2681343217C627C002A03D1D0
S2140022902A4A9278920701D580221343A27C002A0C
S2140022A002D0802292021143E27C002A02D08022D1
S2140022B092001143227D002A02D08022920111430F
S2140022C04246126813434246136053680B435360FA
S2140022D00020D9E63068134B98471230C0B20F4B37
S2140022E09847010002AB9A1DA0690D4B9847030062
S2140022F01720002B00D0C7E602AB06331B784246F9
S2140023001373BCE7084A136A02210B4313621823AF
S21400231060E7C046011E000000280040C1310000F2
S214002320F71C00005D1F0000000400409D31000007
S2140023302D310000B51D0000C9320000002000410C
S21400234010B544791523012C01D0180010BD047A6D
S2140023500023002CF9D1002A58D04B78002B44D00B
S21400236003681B7EDB0710D40A78D10900230029F6
S21400237004D15309DB012E498C4663441F211140CA
S21400238001228A409A610523DFE70A78D4090023F0
S214002390002C04D15309DB01254CA44663441F24BA
S2140023A014400122A2405A6103681A7ED20701D562
S2140023B08A789A62C2790023002AC6D1026804216C
S2140023C0137E0B42FCD0117E00234907BDD5538BEC
S2140023D05B0701D5042353838379012B02D0936ACC
S2140023E00023B2E7936A0023AFE70A78D1090023F7
S2140023F0002904D15309DB010D498C4663441F2193
S214002400114001228A405A6100239EE70A78D109CA
S2140024100023002904D15309DB0105498C46634497
S2140024201F21114001228A409A6100238DE7C04691
S21400243000280040F0B5DE4657464E464546E0B515
S21400244091B005000C00160029600800C44B9847A0
S214002450020005280DD0070012370300216805206A
S214002460C90709D511B03CBC90469946A246AB4672
S214002470F0BD18270123F1E7216817308907F1D44A
S214002480052A49D0B749C86901229A401300034378
S214002490CB610FA92D239846F35C0B70FFB2380072
S2140024A0B14B98473800B14B98474346F05C002143
S2140024B0AF4B9847F37A6B712423F35CAB712523FB
S2140024C0F35CEB71F37E2B72337F6B722B6898464E
S2140024D01800A34B9847052826D0123000220E235A
S2140024E006A98C4663441A80328A02928023DB0156
S2140024F09A4200D1A7E019D9C023DB01029A9A427A
S21400250000D19BE080231B029A4200D023E10323E4
S21400251006930023079312E09249086A043A9A4009
S214002520130003430B62B4E71820D7E780239B0110
S2140025309A4200D00FE1102306930F3B07933368AF
S2140025400593F3689B4673690393337E04932623AF
S214002550F35C9A4673689946002B00D19BE0802373
S2140025605B05994504D12723F35C002B00D180E05E
S214002570737E002B02D0B37E424693730E2306AAC8
S214002580944663441B8842469381059B5A461343F0
S214002590039A13434A461343029F1F43049B1B029E
S2140025A01F4353465B071F432723F35C002B01D1D1
S2140025B004331F43737E9B02327F52021343727FA3
S2140025C0120213432422B25C520413432522B25C47
S2140025D012041343B17AF27A114319433389FF2B5D
S2140025E07DD080225204174319432C23F35C002B22
S2140025F003D1604B9B789B0701D580231F432A6835
S214002600D369002BFCD1434659602A68D369002B56
S214002610FCD143461F600EAB80221A7000225A700F
S214002620DA709A70336B0A93736B0B93B36B0C93DD
S214002630F36B02930D9300270AAE5EE00823069321
S214002640073B07937BE733680593F3689B467369FC
S2140026500393337E04932623F35C9A467368994665
S214002660002B14D080235B05994500D17BE7002022
S21400267020E0336A1F00C0B23F4B984701000E228D
S21400268006AB9C46624438003C4B984712E0082351
S2140026900693002307932723F35C002B0ED0069B9C
S2140026A00093079B0E2206A98C466244B16A306AE4
S2140026B0334FB847002800D0D4E659E7336A1F00E6
S2140026C0C0B22D4B98470100069B0093079B0E2235
S2140026D006A8844662443800294FB847EAE7F37EE6
S2140026E0002B82D08023DB041F437EE72000254B8F
S2140026F0984707E00137042F0DD0F9B2BB00985970
S2140027000028F3D0431CF5D00EA90870000CC0B208
S2140027101D4B9847EEE70023EB602B616B61AB61C6
S214002720EB612B62AB626B620022EB85AB853033CC
S214002730EA540133EA540133EA540133EA54286870
S214002740074B984704001149114B9847A400114BBA
S214002750E550002086E61023069300230793EEE656
S2140027605D1F0000000400409D3100002D31000078
S214002770B51D000000200041C1310000F71C00001C
S214002780211D0000011E0000C9320000C128000003
S214002790991F0000F8120020C2791C23002A01D1DC
S2140027A018007047C28D92B2173B002AF8D1026813
S2140027B011850221137E0B42FCD00023F0E78279BC
S2140027C01C23002A01D118007047828D92B2173B55
S2140027D0002AF8D10268107E4007F4D5538BDBB28E
S2140027E098061DD0980703D5022353831833EAE7CB
S2140027F0580703D5042353831A33E4E7D80703D5D1
S214002800012353831233DEE7D80603D51023538300
S2140028103233D8E79B0603D5202353832133D2E7F0
S214002820138D0B800023CEE7F0B5D64600B584B0F6
S214002830040001911720002A03D104B004BC92467C
S214002840F0BDA3790530002BF7D02668013A93B285
S2140028509A460025042719E0002302AAD380911D7A
S2140028602000154B98470028E7D1691C89B202ABB7
S214002870DB88019A53556279012A14D00D0053461D
S214002880013B9BB29A460D4B9A45D6D0337E3B42CF
S214002890E2D10A4B327E3A42DED1012B09D0013B0F
S2140028A0002BF7D1D8E70235ADB21B0A019A535474
S2140028B0E5E71220C1E7C046BF270000FFFF000083
S2140028C0F8B58000624BC5582C68E369002BFCD134
S2140028D0237EA67D1E403023EB5C3122AF5C1F407A
S2140028E0F30722D5EB8D9BB2002B1CD0AA6A137877
S2140028F0DBB2511CA962697901290ED09BB2DB05B7
S214002900DB0D2385EB8D013B9BB2EB85002B0CD1B9
S214002910013323750133A37507E0517809020B4391
S2140029200232AA62EBE701232375B30706D502231A
S214002930237500223133EA54FB071AD4730765D592
S214002940AB8D9BB2002B5FD0638BDBB21A0714D41F
S2140029503F221340002B34D09A0711D51A22322377
S214002960EA54303B63837B0750D528006B69984751
S2140029704CE02800EB689847E0E737221340E9E789
S2140029805A0705D51E223223EA542E3B6383EAE714
S214002990DA0705D513223223EA54313B6383E2E794
S2140029A0DA0605D542223223EA54223B6383DAE76D
S2140029B020221A42D7D021323223EA54123B6383B4
S2140029C0D1E7238DDB05DB0DDAB2696A0A706A6A25
S2140029D0511C69626979012910D0AB8D013B9BB20D
S2140029E0AB85002B12D10433237500222E33EA5414
S2140029F0BB070BD528002B69984707E01B0A5370C6
S214002A006B6A01336B62E8E704232375F30604D58B
S214002A10102323752376FB060ED4B30604D5202395
S214002A20237523763B070BD4330704D50823237579
S214002A302376BB0608D4F8BD2800EB699847ECE778
S214002A402800AB699847EFE72B6A28009847F2E71B
S214002A50F812002010B5082803D880001C4B1B581D
S214002A609F46002032E01B4B18692FE01A4B187D5A
S214002A700007800F431C1948584327E0154B586938
S214002A8024E0144B1B6800209B071FD512498022A8
S214002A905200CB681342FCD00E4B1B685B0701D478
S214002AA00F4813E000200F4B98470A4B9B681B0407
S214002AB01B0C58430AE02823074AD35C00209B07D8
S214002AC004D5044BD86801E08020000210BDC04643
S214002AD0D4EF0100600A0020000C004000093D0011
S214002AE0006CDC02C131000070B50B4C237D85788C
S214002AF0467802780321114089000C2293430B4349
S214002B000B3A3240920140218B431343ED017F2262
S214002B1013402B43237570BD000C0040F0B5D6461D
S214002B204F464646C0B5204B9A465B6945780178C5
S214002B304C424C41A14681788C46C1788846467AFC
S214002B40077A847A4068194948610121484680001E
S214002B5004229343034340460840C0000432934394
S214002B6003436046084000010832934303430F4086
S214002B70BF01402083433B430E40F6014030834371
S214002B803343793805402D02094803402B43214042
S214002B900903084803400B43524653611CBC904649
S214002BA09946A246F0BDC04600100040600A0020CC
S214002BB0FFF8FFFFFFEFFFFF10B5837A9B061B0CA5
S214002BC082899205920D13431A494B60037A427A22
S214002BD013438288C488224313434278D2011343A6
S214002BE08278920113430B600378042B11D0202BBC
S214002BF00ED1837B9B06428A1343028A12040E4937
S214002C000A4013430B4A936011680C4B0B43136046
S214002C1010BD837B9B06428A1343028A1204064930
S214002C200A401343034A9360136804210B4313605E
S214002C30EEE7C046600A00200000FF032404000000
S214002C40082803D88000294B1B589F4617204BE0C6
S214002C50274A137D02210B431375002044E0254AC2
S214002C60936902210B43936100203DE0204A138ABA
S214002C7002210B431382002036E01E4A53690221CC
S214002C800B43536100202FE01B490B6802221343BD
S214002C900B60174B1A831900FE32CB681342FCD028
S214002CA0154A9168124B19625268DA6100221A833B
S214002CB019000132FF32CB681342FCD00E4B1B6862
S214002CC09BB20B4A138300200EE0094928228B5C36
S214002CD0022003438B5408003821263A435C1342F3
S214002CE0FCD1002000E000207047C046F8EF01004D
S214002CF0000C004000100040600A0020082832D86F
S214002D0080001A4B1B589F46194A137D02218B439D
S214002D10137500207047174A936902218B4393610D
S214002D200020F7E7124A138A02218B431382002001
S214002D30F0E7104A536902218B4353610020E9E70C
S214002D400D4B1A6802218A431A601B689BB2084A18
S214002D5013830020DEE7064928228B5C022083438B
S214002D608B540020D6E71720D4E7C0461CF001009D
S214002D70000C004000100040600A0020F0B5CE466F
S214002D80474680B58DB080225200764B9A60FD3A59
S214002D90754B9A60754A53681E218B431A390B434C
S214002DA053608023DB059B78022B0FD08023DB0546
S214002DB09B785BB2002B09DB8023DB0501229A712E
S214002DC001329A701A009379002BFCD009A80023D0
S214002DD0037080221202426083700122C270037266
S214002DE08372033242704372614B98470520614BF1
S214002DF0984761490122CB681A42FCD001A90125F7
S214002E004D6000244C700C724C7203230B70002033
S214002E105A4B984706205A4B98476B465C701D7075
S214002E209C706846574B98470620524B98474D492A
S214002E301022CB681A42FCD001A901234B60002463
S214002E404C7005330B700C724C7200204B4B98473D
S214002E5004AB00229C80DC801A725A729A703F2162
S214002E6099813B3919705A70474B1B689B0E3F2B54
S214002E7000D174E004A88372B723DB0043820723E3
S214002E80837338330382414B9847414B984701ACD4
S214002E900126029600256570657205239946237003
S214002EA0267221000120354B984698470120394F5D
S214002EB0B847657006232370257265724B466360BB
S214002EC021000220C0470220B847267021000020BB
S214002ED0314B98470020314B98470720254B9847A1
S214002EE02049D0221201CB6813409342FBD12C4CD0
S214002EF00123A3716371237101A900234B700B7228
S214002F004B7207330B70013B4B6000201B4B9847FE
S214002F100020204B98470020224B98472179C9B2C1
S214002F20214B9847214B984214D88023DB059B7889
S214002F30002B0FD08023DB059B785BB2002B09DBD0
S214002F408023DB0501229A7100229A701A00937979
S214002F50002BFCD00DB00CBC90469946F0BD203B33
S214002F6088E7C046000C00400014004000400041C6
S214002F701D2B0000412C000000100040D52F000043
S214002F80FD2C0000E92A000020608000B92B00001C
S214002F90B12F0000813000009D3100002D3100006F
S214002FA000040040C130000041530100001BB70080
S214002FB0064A536940210B4353610122044B1A70A1
S214002FC019000B781342FCD17047C046000400403D
S214002FD00018004070B504000D784B78002B02D026
S214002FE08023DB001D434B7A002B02D080231B017D
S214002FF01D43486801280FD9431E184231D10228C4
S2140030002DD90223002201325B009842FBD8802390
S2140030105B011D43120415430B7A002B02D080235C
S2140030209B011D430426A6401149124A4B681340D3
S2140030301E42FBD1104B9847A4000D4B9C4664449F
S214003040226A80235B001A402A4322626146094AAC
S2140030504B6813401E42FBD1084B984770BD0022B8
S214003060D5E7000480239B0018430543D4E7C046F9
S21400307000180040FC070000AD010000ED01000054
S21400308010B504000422824009480A4943680B40F0
S2140030901A42FBD1084B9847A400054B9C46644453
S2140030A0226A80235B0013432362044B984710BDBB
S2140030B000180040FC070000AD010000ED01000014
S2140030C0F8B50400042282401248134943680B40B6
S2140030D01A42FBD1114B98470E4F0834A400E05912
S2140030E00007000F0E4B98470600E559ED04ED0F5C
S2140030F0E459240C0B4B9847002D07D1012C07D917
S21400310021003000084B9847060001E00134E640F5
S2140031103000F8BD00180040FC070000AD010000BC
S214003120552A0000ED0100004153010010B50400CF
S214003130094B9847A000094B9C4660448022835860
S21400314040210B4383504031403A43581A42FCD04A
S214003150034B984710BDC046AD0100000018004064
S214003160ED01000010B50400094B9847A000094B7C
S2140031709C4660448022835840218B4383504031D4
S214003180403A43581A42FCD1034B984710BDC046FC
S214003190AD01000000180040ED01000070B504000D
S2140031A00D00054B98472A780F2313402034A400BF
S2140031B0024AA35070BDC0466531000000180040AA
S2140031C010B50400064B98472034A400054BE4587D
S2140031D02407240F044B98472000044B984710BD43
S2140031E0AD01000000180040ED010000C1300000F5
S2140031F0002808DB01238340C022520006498B507A
S2140032000023180070471723421CFAD1802292042C
S214003210024B5A600023F4E700E100E000ED00E016
S21400322030B5D378002B35D11378802B29D01B06E8
S21400323080246402234354780225AC4306D1947854
S214003240002C20D18024A402234341605478013C02
S214003250012C1CD90D042D0CA024E4052C431C4382
S21400326084620D0CD02424062C431C438462D4783C
S214003270002C22D15B031CD59378012B1ED0416114
S21400328017E00023D7E7C024E4022343DDE70D4C14
S2140032902340DFE741600C04240CA023DB05234316
S2140032A083620C0CD0231B0623438362D378002B47
S2140032B003D15378013B012B02D930BD8161F8E779
S2140032C08160FAE7FFFFFBFF10B50A00C109002383
S2140032D0002904D14309DB0105498C4663441F24B9
S2140032E02040012181401800024B984710BDC0467F
S2140032F000280040213200007047000010B5054B42
S2140033009847054B9847054B9847054B9847054BFC
S214003310984710BD7D2D00001D020000F932000008
S214003320010A0000F9320000931C9B001950022A83
S21400333009D0032A0CD0012393401A00037E1343BE
S214003340037600207047037E102213430376F8E7C7
S214003350037E202213430376F3E7000070B5800057
S214003360164BC45823689D7A227E637E13401D4008
S214003370EB0706D4AB070BD4EB0610D4AB0615D47C
S21400338070BD2000A3689847012322689372F1E776
S2140033902000E3689847022322689372ECE7200037
S2140033A023699847102322689372E7E72000636931
S2140033B09847236820229A72E2E7C046101300203E
S2140033C010B50020014B984710BDC0465D33000085
S2140033D010B50120014B984710BDC0465D33000074
S2140033E010B50220014B984710BDC0465D33000063
S2140033F010B50320014B984710BDC0465D33000052
S21400340010B50420014B984710BDC0465D33000040
S21400341030B587B001A90C4B0A0032CB32C212CBB2
S21400342012C2019B98420BD0012301A99A00525860
S214003430824206D00133052BF8D1002007B030BDFC
S2140034400023D8B2FAE7C04668F00100F0B5C646D9
S21400345000B58EB004000D0016000800AE4B98476D
S21400346080460CAB1B221A705A7001329A70DA70C2
S21400347001321A7102A9A94B14330A0083CB83C206
S21400348083CB83C283CB83C21B6813600023A360F5
S214003490E360236163612376637643469A00A04B1C
S2140034A0D45025603423F35CA376F378082B08D039
S2140034B023712B680520DB0708D50EB004BC9046A8
S2140034C0F0BD17204246D207F7D4F1E7EB7A173063
S2140034D09B07F2D42B689B07EFD4337C002B12D1CA
S2140034E0337F002B1BD143465A0002A9531C9B0076
S2140034F058584346DB005B58D9B2042923D88B00C2
S2140035008849CB589F4601A901238B700022CA70B8
S214003510327E0A704B70307D834B9847E0E701A9F6
S21400352001238B700022CA702432B21812780A70F7
S2140035304B701F33F31818787B4B9847D3E77B49BB
S2140035404B6918434861F378082B00D186E033783E
S2140035506A4613700CAB42469F5C69463800744B53
S21400356098473800734B9847F378F2791343B2883C
S2140035701343727A002A02D0802252021343B27A90
S214003580002A02D0802292021343F27A002A02D046
S214003590802252031343327B002A02D080229203F9
S2140035A0134371788901B278D20111431943226816
S2140035B01369002BFCD1296022681369002BFCD10B
S2140035C0B3792B73717B4B1E99418900B37B002B1B
S2140035D001D00123194322681369002BFCD1FF3365
S2140035E02B71002904D022681369002BFCD1697165
S2140035F0337A6B7322681369002BFCD12379042B72
S21400360059D0082B74D01720002B00D055E713692B
S214003610002BFCD1338DAB8222681369002BFCD1C2
S214003620738DAB8322681369002BFCD1B38DEB83BB
S214003630002042E73D498B691843886183E73B4990
S214003640CB691843C8617EE738490B6A184308629D
S21400365079E7364B596A0843586274E743460133A4
S214003660042B00DD73E702ABD11C8900C958023277
S2140036709200D358DAB2042A00D968E793002E4A9B
S214003680D3589F46294A5369194351615FE7274A31
S2140036909369194391615AE7244AD3691943D16162
S2140036A055E7224A136A1943116250E71F4B5A6ABC
S2140036B0114359624BE71369002BFCD12833F35CA6
S2140036C02B7522681369002BFCD12933F35CEB764B
S2140036D022681369002BFCD12A33F35C2B7722680F
S2140036E01369002BFCD12B33F35C6B770020E4E6E8
S2140036F01369002BFCD1B36A6B6122681369002B37
S214003700FCD1F36AEB6122681369002BFCD1336BA2
S2140037102B620020D1E6C0461134000068F001009C
S2140037201013002040F00100C932000000040040E1
S2140037309D3100002D31000054F00100026813692D
S214003740002BFCD1137101680B69002BFCD1803370
S214003750537102681369002BFCD10379042B05D042
S214003760082B09D00020002B03D07047107DC0B274
S214003770FBE7908A80B2F8E75069F6E710B5046870
S2140037802369002BFCD10379042B06D0082B28D004
S214003790002B13D01723180010BD17230129FAD8C1
S2140037A0837E002B05D0D2B2611830310A70002318
S2140037B0F1E7D2B2641822770023ECE71723012939
S2140037C0E9D8837E002B05D092B2183149000A53FF
S2140037D00023E0E792B20C3149006418A28000236F
S2140037E0D9E717230129D6D8837E002B05D10631C9
S2140037F08900641862600023CDE70C3189000A5105
S2140038000023C8E7FEE7000010B51A4A1A4B9A4292
S21400381011D01A00194B9A420DD2194A03339B1A3B
S2140038209B0801339B000022134812498C58845091
S21400383004329A42FAD1134A134B9A420AD2D3431D
S21400384011495B1803218B4304339B18002102C2E5
S2140038509342FCD10D4AFF210D4B8B4393600D4ADA
S21400386053687F390B4353600B4B98470B4B984775
S214003870FEE7C046CC10020000000020180A002018
S21400388004000020180A00206820002000ED00E058
S214003890000000000040004169840100D1ED0000F6
S2140038A0F0B5C64600B50C00904600280FD1002A99
S2140038B011DD8F18094E0A4D306821002B68984795
S2140038C00134BC42F8D1404604BC9046F0BD01230A
S2140038D05B429846F7E78046F5E7C0462C13002083
S2140038E024130020F0B5C64600B50E0015000138BA
S2140038F0022810D8002A11D000240C4B98460C4FF2
S21400390043461868315D3B689847002808DB013459
S214003910A542F5D106E00124644203E0140001E06C
S21400392001246442200004BC9046F0BD2C13002005
S214003930281300200300064A1268002A04D0044A0E
S2140039401068C318136070470249014A1160F6E711
S214003950780A0020684000200120404270478023FB
S2140039609B014B6000207047012070470020704785
S21400397010B50248024B9847002010BD7C0A002074
S2140039801545000010B582B00400144B1B68002BD0
S21400399001D0134B98472000124B98470F4B1860E6
S2140039A0002819D062780023032A02D0180002B03B
S2140039B010BD03680133023A009212320021002043
S2140039C0094CA047031EF1D1044A126811684A78D0
S2140039D0072082434A70E9E7E123E7E77C0A0020F4
S2140039E07139000089440000D93F000010B5029CE0
S2140039F0002C08D00324204007D002280DD0012830
S214003A0003D0E22012E0E22010E0D20007200340BC
S214003A101A43029B1A80002008E0C90007200340D2
S214003A200B4312021A43029B1A80002010BD0000AE
S214003A30002A3ED0204B1B685B685B685B78002BD7
S214003A4013D1012809D0002803D0022809D0E2208B
S214003A5030E05823136000202CE040231360002041
S214003A6028E020231360002024E0012809D0002845
S214003A7003D0022809D0E2201CE080231360002037
S214003A8018E040231360002014E0072908D908290D
S214003A900AD0E2200F290DD848231360002009E041
S214003AA024231360002005E0D0235B001360002071
S214003AB000E0E2207047C0467C0A002070B5B2B035
S214003AC014001D00002A32D01A4B1B681E686B4675
S214003AD0D8709980C04383070ED0102221006B4611
S214003AE0981D154B984769463000144B9847041E9E
S214003AF009D0200032B070BD202221006B46981DF0
S214003B000D4B9847EFE70B4B196868460C4B9847E8
S214003B10041EEED1002DECD06B469B79122BE8D913
S214003B2010226B46D91D2800034B9847E1E7E22494
S214003B30DFE7C0467C0A00208D8A01004D43000066
S214003B405145000010B504008901C8B22100014C9F
S214003B50A04710BDBD3A000030B5B3B014001E4AF1
S214003B6012681568002B26D0002C22D06A46D0702A
S214003B709180032824D11F2B11D9202221006B46C7
S214003B80981D164B984700221DE0032B1BD90432C4
S214003B9021006B46981D114B9847012213E0002226
S214003BA011E000220FE00C4B196868460C4B984752
S214003BB00FE0E2200DE06A46D07091800328F0D036
S214003BC000220228E1D069462800064B98470028C4
S214003BD0E9D033B030BDC0467C0A00208D8A010093
S214003BE0514500007D420000F0B5B3B01500002B33
S214003BF053D02B4A126814686A46D070918095712B
S214003C002A0A6946CA712A0C0A722A0E4A72602665
S214003C100640202E0DD019000A206844214B9847F4
S214003C2069462000204B9847041E09D0200033B078
S214003C30F0BD102219000A2068441A4B9847EFE797
S214003C40174B19686846194B9847041EEED1202773
S214003C50002E02D1EB0500D52037389B002B04D070
S214003C606B469A79FB1C9A4210DA399B002BDDD002
S214003C706B469A793B0023339A42D7DB32ABD9198D
S214003C80C13920223998074B9847CFE73A006B4650
S214003C90D91D3898034B9847E7E7E224C6E7C046A5
S214003CA07C0A00208D8A01007943000051450000FF
S214003CB0F0B5B3B016001D001F4B1B681F6803232A
S214003CC003406A46D0709180012B05D9E224032B6D
S214003CD022D0200033B0F0BD142231006B46981D70
S214003CE0164B984769463800154B9847041EF0D186
S214003CF0114B19686846134B9847041EE9D1002DEE
S214003D00E7D06B469B79222BE3D920226B46D91D40
S214003D1028000A4B9847DCE7830606D54022310088
S214003D206B46981D054B9847DCE7202231006B4612
S214003D30981D024B9847D5E77C0A00208D8A010023
S214003D40AD4200005145000010B502000B000021F6
S214003D500020014CA04710BDB13C000030B5B3B008
S214003D600500124B1B68186800236A46D3709380C0
S214003D7069460F4B9847041E02D0200033B030BD72
S214003D800A4B196868460B4B9847041EF5D16B46DC
S214003D909B79232B01D0E624EFE7002DEDD02022DF
S214003DA06B46D91D2800044B9847E6E77C0A00209E
S214003DB0E9420000514500008D8A0100F0B5B9B017
S214003DC003903EA880C80578002F0AD022480068D5
S214003DD00668042D16D0E224202D04D0200039B029
S214003DE0F0BDE224FAE70E2002ACA4466044009040
S214003DF003981A4CA047041EF0D18023039A1A4356
S214003E00039209E00E2002ACA4466044009003989A
S214003E10124CA047041EE1D106A96B461B7BCB7053
S214003E200E2302AA944663441B888B8030000C4BFA
S214003E309847041ED2D1084B196806A8094B984724
S214003E40041ECBD12A00172102AB9C4661443800E1
S214003E50054B9847C2E7C0467C0A0020ED390000B3
S214003E6001430000514500008D8A010070B58AB0FC
S214003E700500E22400280BD02023019302AB009318
S214003E800023002200210020084CA047041E02D078
S214003E9020000AB070BD042202A92800044EB047D4
S214003EA0281D052204A9B047F2E7C046BD3D000024
S214003EB08D8A0100F0B5D64600B5B6B002900391E3
S214003EC015001C003CAB1E88142200210EA83B4F98
S214003ED0B8472022002106A8B84700230593002DE6
S214003EE067D0E220002C65D02033019313AB0093FB
S214003EF00023002200210020314FB847002859D166
S214003F00052215A914A82F4B984706A90EA82E4BD4
S214003F10984700284ED11BAF442200213800274B7B
S214003F209A4698471022002132A8D0470EAB33930A
S214003F3006AB3493359732A8244B9847002839D1DE
S214003F4005AA15231370133B53709670330AD3706B
S214003F500423310002301E4FB84700282AD12CAF68
S214003F60182200213800154B98477E8013ABBB60A3
S214003F70FC6002233B7005AB3B611BAB7B613800EA
S214003F80144B9847002815D1202301930095002351
S214003F90039A029982300A4CA04700280AD10023CF
S214003FA01BACEA5C195D4A40EA540133202BF8D179
S214003FB000E0E22036B004BC9246F0BDB18B0100B2
S214003FC0BD3D0000118B0100493D0000D9510000A5
S214003FD0593B0000A1520000F0B5DE4657464E465B
S214003FE04546E0B591B00500029117000393002303
S214003FF00F93E224022807D9200011B03CBC90465B
S2140040009946A246AB46F0BD02281FD000241A9B54
S214004010002BF1D0E234039B002BEDD00FAA0299BF
S21400402028002E4B9847041EE6D11A9BDB19E23473
S2140040300F9A9342E0D87B09984620239A4600239D
S2140040400026A9461D00059757461EE00F29D3D81F
S214004050DCE743465B010F9AD31A1F2B17D8059B44
S2140040609B199B0807251D401C3F10E0039B9819D1
S21400407007AB9C4661442200194B98473619202FFF
S21400408024D001351A9BB34224D9202FE1D0EBB2BD
S214004090424669460A740A7C019707A9009102996C
S2140040A04846104CA0470490002815D14346DB0034
S2140040B05B199B0000210598984200D9C11A7B1A0B
S2140040C01A9A941B9C42D1D91C00CFE701239C4628
S2140040D0E044D7E7049C8FE7049C8DE7313A000064
S2140040E08D8A0100BD3D000070B5B2B014001D0001
S2140040F0002A2ED0184B1B681E686B46D870998015
S21400410040B200280EDB042221006B46981D134B9C
S2140041109847002269463000114B9847002812D075
S21400412032B070BD20222100981D0C4B9847002D00
S21400413007D02022290026206844084B98470122F1
S214004140E8E70022E6E7044B19686846054B9847FF
S214004150E6E7E220E4E7C0467C0A00208D8A0100FC
S214004160194300005145000070B584B0040008A84B
S21400417040C80578002E06D0042D11D0E220202D50
S21400418003D004B070BDE220FBE70E206844009028
S21400419020000C4DA8470028F3D180231C4307E0DD
S2140041A00E20684400902000064DA8470028E8D15D
S2140041B00E236B441988002332002000024CA047CF
S2140041C0DFE7C046ED390000E9400000002904D0D2
S2140041D0087000234B7000207047E220FCE70000C8
S2140041E010B5041E04D00068024B984700232360D5
S2140041F010BDC046C5840100F0B5D6464F464646BB
S214004200C0B59446002821D08946884680440023BD
S214004210134816E06D00EDB2013E002E0CD0DF0B09
S2140042205B009BB22C000C40621E9441E4B2BC4280
S214004230F0D043409BB2EDE701229246D144C145FF
S21400424005D04A46117808260125E8E7002362468D
S21400425013701B0A53701CBC90469946A246F0BDCC
S2140042600580FFFF10B5411C40780238C0B20A181E
S214004270014B984710BDC046F941000010B5152304
S2140042808B70CB78032B08D0002A09D107234B70FC
S2140042900800054B9847002010BD24334B70F7E705
S2140042A00B234B70F4E7C0466542000010B5CA7891
S2140042B00323134016208870012B03D9E220032B1A
S2140042C007D010BD1B234B700800064B98470020F4
S2140042D0F7E7930602D547234B70F5E727234B7085
S2140042E0F2E7C0466542000010B51B238B70143BF6
S2140042F04B700800014B9847002010BD6542000037
S21400430010B502238B7005334B700800014B98479D
S214004310002010BD6542000010B512238B700B3BC9
S2140043204B70CB787F2B0BD80B234B70002A02D018
S2140043304B7820334B700800034B9847002010BD85
S21400434027234B70F2E7C0466542000010B55123A4
S2140043508B704A3B4B70CA781340032B06D017234A
S2140043604B700800034B9847002010BD24334B7059
S214004370F7E7C0466542000010B556238B70CA7832
S2140043800A331340202B07D04B7A0B334B700800B0
S214004390034B9847002010BD053B4B70F7E7C0461F
S2140043A06542000070B582B005000478023CE4B2B5
S2140043B001AE320001002000084B984732782B5D92
S2140043C0E5209A4201D002B070BD2C1901AB5A7894
S2140043D063789A42F7D10020F5E7C046F94100001D
S2140043E002780023042A01D0180070474278072A72
S2140043F021D0D3B2072B0BD8012A1AD0002A1ED000
S214004400D223032AF0D00433052AEDD0E123EBE7CC
S2140044100F2A12D0D3B20F2B07D9F323112AE3D0D9
S214004420D2B21F3BFF2ADFD0F0E7FA23082ADBD000
S214004430ECE7D123D8E7D723D6E7F423D4E7002345
S214004440D2E7000070B505000C00002812D0002945
S21400445012D00968002911D0E2206368002B0AD028
S2140044606878074B9847002805D161682800054BF7
S214004470984700E0E22070BDE220FCE7E220FAE781
S214004480CD410000F547000070B5051E2DD0082070
S214004490174B9847041E11D00420154B9847061E4C
S2140044A020600DD02820124B9847606000280CD062
S2140044B0210028000F4B984700280DD1200070BD22
S2140044C020000D4B98470024F8E730000A4DA84717
S2140044D02000A8470024F1E76068074DA847206839
S2140044E0A8472000A8470024E8E70024E6E7C046DF
S2140044F0B184010045440000C584010010B5E223E4
S214004500002803D04068024B98470300180010BDEF
S2140045107947000010B5041E13D00068094B984771
S2140045202068094B984723685868002804D0074B32
S2140045309847236800225A602068044B9847002357
S214004540236010BDFD440000E1410000C584010069
S214004550F0B5DE4657464E464546E0B583B0814642
S2140045600F004868244B9847041E0AD07868234BEF
S2140045709847200003B03CBC90469946A246AB46FE
S214004580F0BD4B465A78494678681D4B9847041E3E
S214004590ECD101201B4B98471B4EC02398461B4B63
S2140045A09B461B4B9A464B469D1D424600212800C3
S2140045B0D8476B469A1D4346138029007868D04733
S2140045C0041E10D002200F4B9847013E002EEAD161
S2140045D0CCE728000F4B9847041EC7D128000E4B87
S2140045E098470400C2E76B46DC88032CF1D860428B
S2140045F06041E6300400B9E73D4700005D47000033
S2140046002D470000BD510000E3040000B18B0100FF
S21400461035470000A5430000E14300000200413A90
S2140046200123052A06D96138C0B20023052282423A
S2140046305B41DBB21800704710B50200303A012328
S214004640092A02D9024B98470300180010BDC0463D
S2140046501D460000F0B5DE4657464E464546E0B5D8
S21400466083B00F1E01929A4657D0040080468844B5
S214004670012600272C4B994601239B460EE010236B
S21400468029004139052901D8373DEBB21B011370CB
S2140046905B465E40F6B20134444534D025782800A7
S2140046A0C8470028F7D053461B68BB4239D9002EAE
S2140046B00ED0019BDA1929003039C9B20B0009293E
S2140046C0E4D92B00613B052BD9D8573DEBB2DDE78B
S2140046D02A00303AD2B21300092A05D92B00613BD2
S2140046E0052B08D8573DEBB2019AD21915785D19FB
S2140046F015700137CCE710232A00413A052AF3D873
S214004700373DEBB2F0E7E220002E06D103B03CBC0A
S21400471090469946A246AB46F0BD53461F60002021
S214004720F4E7ED20F2E7C0463946000010B503690D
S214004730984710BD10B54369984710BD10B50400E2
S21400474083699847D02800D010BDB738024B9847E9
S214004750A36920009847F7E7BD51000010B5C3696C
S214004760984704000120024B9847200010BDC04621
S214004770BD5100004068704710B5E223002804D001
S214004780416A0078024B98470300180010BDC046E7
S214004790C54B000070B504000D004068094B9847F3
S2140047A02B68A3606B68E360AB682361EB686361AA
S2140047B02B69A361AB6923626B69E3612B6A636251
S2140047C0002070BD714B000010B58AB0040001A92E
S2140047D0074B9847616801A8A3689847002801D04E
S2140047E00AB010BD099B6362E36820009847F7E7AC
S2140047F09547000010B500280BD0E223002906D00C
S21400480003780B7048600800034B984703001800B5
S21400481010BDE223FBE7C046C947000070B5B0B044
S21400482005000E0014006846064B98473200290023
S2140048306846054B984721006846044B9847002079
S21400484030B070BDFD490000614A0000ED4A00002E
S214004850F0B5DE4657464E464546E0B5D5B00B9019
S214004860002A00D1C0E00B00920189180A910200CC
S214004870A8320992604A91465CE0029D019502903A
S2140048805846BC462700140002000B25EA410500E6
S2140048900626F541554002001336F24155404A4679
S2140048A08A58049E8E59B0464244AD18029A024079
S2140048B09046019A824346467240AA18D318039D32
S2140048C0AB469B4425000D26F54122000B3EF241E7
S2140048D06A4025005646F5416A4065467D402540BB
S2140048E066463E4075405219D2180431019B654613
S2140048F0039580256D00A942BFD13D006746089B01
S2140049009C4659460C920D940E9510911190029B60
S2140049101293019B13930F9763460599079804C952
S2140049201C68A446624404C38342F8D1069B0A9AD4
S2140049309A4259D014A8402294469C446246644643
S214004940069202001978D170597891709978517052
S214004950D978117004330432A342F3D14268816BD4
S21400496013000724E34114001225EC416340D208EB
S21400497053400268446AA44662449B180A00112405
S214004980E2410C000135EC416240890A4A409B181E
S2140049900364043044AB9842E0D10B9B88229046D7
S2140049A043449C460CAB05936246099802CA02C370
S2140049B08242FBD10792139A129B0193119B02939A
S2140049C010980F9B98460E9F0D9B0C9C002514A9D3
S2140049D0049116218A4661460891BC461F001300C2
S2140049E02900424603924FE755B03CBC9046994694
S2140049F0A246AB46F0BDC046A4F0010010B50400C8
S214004A00A82200210D4B98470D4A8823E2500D4AF4
S214004A100433E2500C4A0433E2500C4A0433E250AA
S214004A200B4A0433E2500B4A0433E2500A4A04337A
S214004A30E2500A4A0433E25010BDC046B18B010072
S214004A4067E6096A85AE67BB72F36E3C3AF54FA51A
S214004A507F520E518C68059BABD9831F19CDE05B46
S214004A60F0B5D6464F4680B583B006000D0014005C
S214004A70406840273F1A974200D917000830301880
S214004A803A002900174B98477368E3183F2B05D860
S214004A90736003B00CBC91469A46F0BD08239C4652
S214004AA0B444634601220193614630000E4B9A4699
S214004AB09847E41BA2099146E9193000D0474A46B8
S214004AC0531C9B0132689446634433603F231A00AC
S214004AD02240726021009943C91969180198014B58
S214004AE09847D6E78D8A010051480000F8B50500C2
S214004AF00C0040682B68C7182F60FF0009235B4234
S214004B001B1A3F261E40431C6B602B1880221A720D
S214004B10321D093028180021134B98476B689C46B5
S214004B206644AB193A0E1A733A0C5A733A0A9A73D9
S214004B30320008326A60DF739209290008312800C3
S214004B400A4B984728008830A83503E00430043420
S214004B50A84208D003230278E2540268120A0260D0
S214004B60013BF8D2F2E7F8BDB18B010051480000D6
S214004B700378F020002B00D070470A4B0B600A4BDE
S214004B804B600A4BCB600A4B8B600A4B8B610A4B1F
S214004B900B610A4B4B610A4BCB6100230B62002072
S214004BA0EAE7C046354C0000E14D0000394E0000F3
S214004BB0E54D00002D510000F54F0000D9500000D3
S214004BC08151000010B5002801D0E12010BD08007A
S214004BD0014B9847FAE7C0468151000010B582B0F5
S214004BE004000F4B1A6801925B680093D0200429DA
S214004BF001D002B010BD042201A92000094B98473D
S214004C0003000020002BF4D0042269462000054B48
S214004C1098470300D720002BEBD00738E9E7C046BB
S214004C20A4F10100418A010001680722CB691A42FB
S214004C30FCD17047F0B5DE464F464646C0B582B05A
S214004C4081460D004C79F020052C05D902B01CBC1D
S214004C5090469946A346F0BD009434276743504BD0
S214004C609846B8444346DB6A002B0ADD342262438A
S214004C704B4CA4180133E3624B4642461A620020AE
S214004C80E4E7484E484B73600023B36033733376D3
S214004C9080229203326101225242F282F361336231
S214004CA02532B354B3620832B3540132B3540132DE
S214004CB0B354D73333861E33FF33B382FA218900C9
S214004CC0A8683A4B984730606B79052B66D89B00EE
S214004CD0374AD3589F46342363438421C905304A54
S214004CE09950304A334BD361334B13622C4E043702
S214004CF0F31934276743B959019318002F4B984787
S214004D00B346BB445A46576801982D4B98473B68B4
S214004D10022213433B605B4658682A4B98471F2382
S214004D2018401E3B8340284A13600023102134227B
S214004D30009E56431A4A944666440A367A8B0A42BE
S214004D4005D1013332889342F8D310237B83342372
S214004D506343134CE4186B7923630123E3628BE708
S214004D603423634319490E4A9950BAE73423634300
S214004D7017490B4A9950B4E7342363431549084A48
S214004D809950AEE7342363431349054A9950A8E780
S214004D90342363431149024A9950A2E7F02055E7AD
S214004DA0B40A0020800A0020480D0000415301008C
S214004DB0ACF101000200100002001100A512000074
S214004DC0294C0000D51F000000E100E0000400426E
S214004DD000080042000C004200100042000400439D
S214004DE00020704730B585B00D0014000F4B984773
S214004DF001A903795B080B804D6000230B724B7290
S214004E008B7203332B7001344C8043793420584323
S214004E100430074B1818074B98470300F0205A1E1B
S214004E2093415B42184005B030BDC0467547000050
S214004E30B40A00205D190000F0B5D6464F46464637
S214004E40C0B584B0894690462C4B98470500846AC6
S214004E5043461B889A4601AB027952081A80012203
S214004E605A804A46029200221A725A729A72434630
S214004E701A80ED205346002B05D104B01CBC90468A
S214004E809946A246F0BD01231D4F1E4E0CE06B79DD
S214004E90342058430430381801A9B047F023421E86
S214004EA0904140420340013C002C1CDD002BEED11B
S214004EB04B461B78E420032BDFD99BB209309A457A
S214004EC0DBD301A9013B4B804B4601334B606B792A
S214004ED0B938584304300A4B18180A4B984700282C
S214004EE005D0F020C9E7002BE2D0D8B2C5E74B4684
S214004EF01B78424613800020BFE7C0467547000077
S214004F00B40A002039190000F0B5DE4657464E4672
S214004F104546E0B585B003912D4B984743792D4A19
S214004F209046342502935D432C1D44440194571942
S214004F307E683000284CA246A0471F2420401E3C16
S214004F4022008240254989468023CA500198244A77
S214004F509346904783233375337633680222934310
S214004F603360204E204BF382FA21890003981F4BB2
S214004F7098473060414669583200019E30001C4B0D
S214004F8098477D683000D8472B6802210B432B607A
S214004F907868D0471F210840844049460C600023AB
S214004FA010203421029A51430A4A944661440A3139
S214004FB06A8B024205D101330A889342F8D3102344
S214004FC06B8305B03CBC90469946A246AB46F0BD06
S214004FD075470000B40A0020D51F000000E100E07D
S214004FE0294C0000800A00201027000041530100D1
S214004FF0A5120000F0B5CE46474680B587B004003F
S21400500001902D4B98470600876A836899462B4B7C
S214005010994503D019002000294B98470022002309
S21400502002A90A804A8005AC03940B724B728B72FD
S2140050307379342058430430224B1818224B984773
S214005040B08C224B984733795B0802AA138004235E
S214005050538003947C1E002F28DD1A4B98461C4F65
S2140050607379342058430430404402A9B8470500F9
S214005070013C10D30028F3D1104B994511D0494676
S21400508001980F4B9847F020002D0AD007B00CBCB3
S21400509090469946F0BD094B9945F4D0EFE70125B7
S2140050A0EDE7042105A80B4B9847EFE7034B99451E
S2140050B0F5D1F020EAE7C04675470000A08601005B
S2140050C0094F0000B40A00205D190000A551000039
S2140050D039190000DD4B000000B585B0104B98472D
S2140050E003795B086A4613800123538003AA019262
S2140050F0002369460B724B728B720233137043792E
S214005100342058430430074B1818074B98470300C1
S214005110F0205A1E93415B42184005B000BDC046C1
S21400512075470000B40A00205D19000000B585B080
S214005130104B984703795B086A4613800123538017
S21400514003AA0192002369460B724B728B720123ED
S21400515013704379342058430430074B1818074B14
S21400516098470300F0205A1E93415B42184005B052
S21400517000BDC04675470000B40A00205D19000057
S21400518010B5041E04D0C36A013BC362002B01DDC8
S214005190002010BD0430024B98470023E362F7E777
S2140051A0B115000010B5002803D10120024B984726
S2140051B010BD014B9847FBE75501000010B50028CD
S2140051C003D10120024B984710BD024B9847FBE7DE
S2140051D05501000081010000F0B5C64600B58EB04E
S2140051E00400C568002D50D04668002E4FD00778C2
S2140051F003233B400020012B03D90EB004BC90468D
S214005200F0BDA168002944D00222A35E002B37DB44
S21400521020226846204B984698471422310008A85A
S214005220C047162234236946CA540133CF5400229D
S2140052300133CA542A0037216846184B9847E1685C
S2140052404023CA5C10208243CA54E168CA5C013815
S2140052508243CA54E168CA5C11308243CA54E1688A
S214005260C85C7F220240CA54E36840335A78012162
S2140052700A435A70E26800214223D1540020BCE75A
S21400528020222800044B9847F4E7E220B5E7E22006
S214005290B3E7E220B1E7C0468D8A01001D48000052
S2140052A030B599B004008368002B00D193E04369C1
S2140052B0002B00D192E00578032D1CD0C368002B8C
S2140052C000D18DE0022D04D0E220052D00D983E028
S2140052D019E00379002B00D086E02022E1686846BA
S2140052E0444B98472379002B12D00422216908A842
S2140052F0404B984718E00169002900D172E002226D
S214005300835E002B44DB2022E1686846394B9847D1
S214005310152220236946CA540133CD5463882222BD
S2140053208B541B0A01328B54A368197A24226846D0
S21400533081541978013281545A782623C25419228E
S2140053400021272068442C4B98472378032B24D031
S2140053502022616910A8274B984762696021684639
S214005360264B9847636940335A7801210A435A709E
S2140053702378022B1BD061694023CA5C202082431D
S214005380CA546169CA5C11388243CA54002023E0BB
S21400539020226846174B9847BAE70222A35E002BE6
S2140053A0D6DB2022216910A8124B9847D5E76388E0
S2140053B00F2BE0D8616940228B5C202003438B547E
S2140053C0606961880F231940835C0F24A3430B4355
S2140053D08354002000E0E22019B030BDE220FBE755
S2140053E0E220F9E7E220F7E70369002B00D074E734
S2140053F0E220F1E78D8A0100B18B01001D48000014
S21400540070B582B005000E0000226B46DA80064CAE
S2140054106B46991D2800A0470028F9D16B46063335
S2140054201B88337002B070BDBF27000070B5050042
S2140054308CB2034E21002800B0470028FAD170BD78
S2140054409927000010B582B06B46DC1D01222100B2
S2140054500F48104B984772B6BFF35F8F00220E4B73
S2140054601A700E4B1B7821780D4AD1547F2B0AD028
S21400547001330A4A13700122074B1A70BFF35F8F7D
S21400548062B602B010BD0022044B1A70F3E7C046A5
S214005490EC0B00202928000008000020A10C0020AA
S2140054A0200C0020F0B591B08023DB05009300238C
S2140054B00193FF2269460A8100228B72CB72012477
S2140054C02421684644540131445401314354013187
S2140054D043540A93053143540131435405930382E0
S2140054E0C37602760277427613238376427780234A
S2140054F05B0303932F4B0C932F4B0D9301235B42BF
S2140055000E930F93E1235B0208932C4D2C4B1D60EA
S2140055102C4A2D4B1A602D4A2D4B1A606A46842160
S214005520C90528002B4B98472B4F3B6898680021ED
S2140055302A4EB0473B6858680021B0472E683000B6
S214005540274B98471F2318408440264B1C602A6828
S214005550D369002BFCD13368022213433360174B08
S2140055601B68DA69002AFCD15968802252020A4375
S2140055705A600121114AD171DA69002AFCD1DA6930
S214005580002AFCD15968802292020A435A600121FF
S2140055900A4A9171DA69002AFCD113490020134B9C
S2140055A0984704228423DB059A75FC320D4B1A605B
S2140055B011B0F0BD0300040003000500EC0B002052
S2140055C02C1300202D540000281300200154000046
S2140055D024130020352400006C000020A98D010053
S2140055E0D51F000000E100E045540000991F0000B0
S2140055F070B5154D2C682000144B98471F23184093
S2140056001E3B8340802212498B502A68D369002BA8
S214005610FCD123680222934323600B4B1B68DA6994
S214005620002AFCD15A680B490A405A600021064AF3
S214005630D171DA69002AFCD15A6807490A405A60D3
S2140056400022014B9A7170BDEC0B0020D51F0000A4
S21400565000E100E0FFFFFEFFFFFFFDFF70B5020068
S2140056601F4B1C781F4B1B789C4219D3E31A1E480D
S21400567003701D4B1878002831D043B2002B15DB81
S214005680031C884200D90B1CD8B2002827D0154B23
S2140056901B78441EE4B201341419144D002614E09D
S2140056A020008038C31A10480370E2E70D4B1C70C8
S2140056B080200D4B18704BB2002B01DB0800E4E78E
S2140056C08020E4E73300944207D0E95C1170013291
S2140056D07F2BF7D00133DBB2F5E7024A137070BDBB
S2140056E0A10C0020A00C0020A20C0020200C002002
S2140056F010B582B0054C01216B46D81DA047002886
S214005700F9D06B46D87902B010BDC0465D56000091
S21400571000B583B001216B46D81D054B984700287D
S21400572003DD6B46D87903B000BD01204042FAE79E
S2140057305D560000134B1B6801211A7E0A42FCD0FE
S2140057401A7ED20700D5986202211A7E0A42FCD041
S21400575004211A7E0A42FCD01A7E002052070AD57F
S2140057605A8B520701D504225A83064A9279012A97
S21400577003D0986AC0B2C0B27047986AC005C00D20
S214005780F9E7C046B00C002000B583B001A901239C
S2140057904B7000228A700B702F20024B984703B084
S2140057A000BDC046C90E000010B5054B1B68002B97
S2140057B004D0044B9847024B1B68984710BDC04660
S2140057C0AC0C00200D5D000010B5054B1B68002BCF
S2140057D004D0044B9847024B1B68984710BDC04640
S2140057E0A80C00200D5D000010B5054B1B68002BB3
S2140057F004D0044B9847024B1B68984710BDC04620
S214005800A40C00200D5D000010B5012202490348DB
S214005810034B984710BDC04630130020B00C002044
S2140058204123000010B5002202490348034B984765
S21400583010BDC04630130020B00C002041230000ED
S214005840F0B5D6464F464646C0B590B001AC0126E8
S21400585066700025A570267021005220524FB8476A
S21400586021003E20B84721003F20B84721002F20C6
S214005870B8478022D2024D4B9A614D4B8022D2050A
S2140058809A61802212069A61802212029A6125701D
S21400589021005320B84702AC2000464B98473023DF
S2140058A0029365602572E67221000020424B9A46FC
S2140058B09847002200214148414B994698470021CD
